S013000062745F736F635F656D7074792E733337D9
S214012000C80A002001310100C3080300C308030009
S21401201055210300C3080300C3080300C3080300D7
S214012020C3080300C3080300C3080300C308030072
S214012030C3080300DCEF030007220300C308030004
S214012040C3080300C3080300C3080300C308030052
S214012050C3080300C3080300C3080300C308030042
S214012060C3080300C3080300C3080300C308030032
S214012070358B0100C3080300C3080300E12B0100F0
S21401208015080300C3080300C3080300C3080300C0
S214012090C30803000D390100C3080300C308030089
S2140120A0C30803006924010001350100C3080300C9
S2140120B0C3080300C9A90200C308030021B4020033
S2140120C0C5A80300C1A80300FDAB0200DBA80300FE
S2140120D0C9A80300F1B30200CDA8030061B4020051
S2140120E0358A0200F98B0200CDB40200C308030052
S2140120F0C3080300C3080300C3080300C3080300A2
S214012100C3080300C3080300C3080300C308030091
S214012110C3080300C3080300C3080300C308030081
S214012120C3080300C3080300C3080300C308030071
S214012130C3080300C3080300C3080300C308030061
S21401214082B030BF074BD3F8F030DB0704D500234D
S2140121500193019B052B01DD02B07047019B013302
S214012160F6E700BF00ED00E0F0B5114A114C124E43
S21401217000F00105E3695F0713D40DB9334213D1AB
S21401218003EA00078F4207D10B4A1A40002A0CBF08
S21401219000206FF00100F0BD013AEBD16FF00200B4
S2140121A0F9E74FF0FF30F6E76FF00100F3E700BF05
S2140121B08096980000000350020001000B4B70B59A
S2140121C0D96911F480310DD101244FF48072084E83
S2140121D0084DF46020462C641A61FFF7C5FF34648D
S2140121E0EC6070BD6FF00100FBE700BF000003501C
S2140121F000100350002003504FF4003238B50F4B47
S2140122000F4C9A6641F671330122E569E3630D4B83
S2140122100021DA60022360612120236105F4803504
S214012220FFF7A2FF10B92120FFF79EFF0122064B00
S214012230DA600DB10023E36338BD00BF00900050A3
S21401224000000350001003500020035070B5134CDB
S2140122506061E3695B071ED40E4656F8043B8D1891
S214012260A361AE420BD10423002121202361FFF795
S2140122707BFF58B9BDE870402120FFF775BF0821E4
S2140122800846FFF771FF10B10423236170BD56F8AD
S214012290043BA361E5E74FF0FF30F7E7000003508A
S2140122A02DE9F84315464FF40032184B89469A66D5
S2140122B041F6713203F51C33DF69DA630122064603
S2140122C003F58053DFF84C8007F48037DA6055B9A0
S2140122D0284601220E4BDA601FB10022A3F50053F7
S2140122E0DA63BDE8F88306F5005404EA0804A41B83
S2140122F0AC4228BF2C46494622463046FFF7A6FF89
S2140123000028E6D12644A1442D1BE0E700900050AA
S2140123100020035000E0FFFF000000000000000066
S21401232007B588B10BA3D3E900230949C1E9022304
S214012330CDE900234FF0FF324FF0FF33086927F055
S2140123408DFC03B05DF804FB00220023EDE700BF1F
S214012350500B00200DD50155200000000348044B0A
S214012360834202D0034B03B1184770479C2D0020CF
S2140123709C2D002000000000064B0749C91A891051
S21401238048BF0131491003D0044B0BB1014818472F
S214012390704700BF9C2D00209C2D002000000000EF
S2140123A010B5064C237843B9FFF7D8FF044B13B199
S2140123B00448AFF300800123237010BD06280020D7
S2140123C0000000007436040008B5054B1BB1054932
S2140123D00548AFF30080BDE80840FFF7CDBF00BF5A
S2140123E000000000A80D002074360400A3F5803A12
S2140123F0704700BF174B002B08BF134B9D46FFF7D6
S214012400F5FF00218B460F461348144A121A28F08E
S21401241023FB0E4B002B00D098470D4B002B00D012
S21401242098470020002104000D000D48002802D026
S2140124300C48AFF3008019F0F3FB200029001EF0D2
S21401244072F919F057FA00BF0000080000000000FA
S21401245000000000C80A0020C80A00204029002009
S2140124600000000000000000044B0120D3F82024E7
S21401247003F50053C3F8202411F0D8BD00C0035063
S2140124807FB50368AD4A23F47F4323F007039342E5
S21401249000F09C810DD8AA4A934200F0DF8002F139
S2140124A08072934200F0E680A64A934229D004B097
S2140124B070BDA54A934200F0698102F180629342A1
S2140124C0F5D1B0F805001B28F1D10DF10B0301225F
S2140124D00093002103AB0EF043FF9DF80B20102361
S2140124E0002A00F02881994A13611EF09CF91EF01B
S2140124F09BF9974B9DF80B20964918681FF093F8A7
S214012500D5E7954E304611F0B5FD054618B3904C0B
S214012510924920681FF087F8914920681FF083F8D8
S2140125201EF081F91EF080F98E4B8F4A00938F4979
S2140125306F2320681FF077F88D492B468D4A206857
S2140125401FF071F8284600F061FC8B4920681FF0E7
S2140125506AF800BEFDE70221307811F0C5FD044699
S21401256018B37B4D7D4928681FF05DF87C492868C3
S2140125701FF059F81EF057F91EF056F9794B7A4AB2
S21401258000937A49742328681FF04DF8784923464A
S214012590784A28681FF047F8204600F037FC76494D
S2140125A028681FF040F800BEFDE7A0220090034611
S2140125B01146307811F078FD054618B3644C67492A
S2140125C020681FF030F8664920681FF02CF81EF0CE
S2140125D02AF91EF029F9634B634A009363497D2368
S2140125E020681FF020F862492B46624A20681FF0D7
S2140125F01AF8284600F00AFC5F4920681FF013F815
S21401260000BEFDE70221307811F082FD0546002864
S2140126103FF44DAF4E4C514920681FF004F8504925
S21401262020681FF000F81EF0FEF81EF0FDF84D4B76
S2140126304D4A00934D49812320681EF0F4FF4C4912
S2140126402B464C4A20681EF0EEFF284600F0DEFBC3
S214012650494920681EF0E7FF00BEFDE71EF0E3F8DB
S2140126601EF0E2F83A4B4549186804B0BDE87040E0
S2140126701EF0D9BF364C1EF0D6F81EF0D5F84049EC
S21401268020681EF0D0FF0022334E3E4B02213078E8
S2140126901A7011F029FD054610B3304920681EF066
S2140126A0C2FF2F4920681EF0BEFF1EF0BCF81EF0C8
S2140126B0BBF82C4B2C4A00932C49952320681EF01E
S2140126C0B2FF2B492B462B4A20681EF0ACFF28464A
S2140126D000F09CFB284920681EF0A5FF00BEFDE720
S2140126E00221307811F014FD054600283FF4DFAED4
S2140126F01A4920681EF097FF194920681EF093FFBB
S2140127001EF091F81EF090F8164B174A00931749E1
S2140127109A2320681EF087FF15492B46154A206824
S2140127201EF081FF284600F071FB134920681EF059
S2140127307AFF00BEFDE7144AD6E600BFA0000103FB
S214012740A0000600A0000100A0000A0300D003506C
S214012750E40E002055EB0300742D002027EB030048
S214012760D0EA0300C9EB0300D5EA0300DEEA030062
S214012770EDEA0300EAEA030002EB030013EB0300B1
S21401278029EB03000728002000E00350B0F80530CD
S2140127901D2B7FF48CAE03891A4E13F001041A4DDB
S2140127A00AD01EF040F81EF03FF8184930681EF0B7
S2140127B03AFF01232B707AE61EF035F81EF034F846
S2140127C0134930681EF02FFF2C7070E64468012C08
S2140127D07FF46DAE0F4B22465B6F0021C3F3C0132F
S2140127E08DF80C301D2003AB0EF0EAFD064B1B786E
S2140127F0002B3FF45CAE214603AA1D200EF00CFE12
S21401280055E600BFE40E00200728002060EB030019
S21401281093EB030000C003500022014B1A8070475F
S214012820CC27002030B503687E4A23F47F4323F08B
S2140128300703934289B040F0F38006220021162058
S214012840794B0EF0BDFD044618B3784D78492868DB
S2140128501EF0E9FE774928681EF0E5FE1DF0E3FF4D
S2140128601DF0E2FF744B754A009375496C23286886
S2140128701EF0D9FE73492346734A28681EF0D3FE1C
S214012880204600F0C3FA714928681EF0CCFE00BE4F
S214012890FDE70146082212206D4B0EF091FD04461D
S2140128A018B3624D624928681EF0BDFE614928686A
S2140128B01EF0B9FE1DF0B7FF1DF0B6FF5E4B5F4A76
S2140128C000935F49782328681EF0ADFE5D492346D4
S2140128D05D4A28681EF0A7FE204600F097FA5B497D
S2140128E028681EF0A0FE00BEFDE701460322142064
S2140128F0584B0EF065FD054618B34C4C4C49206804
S2140129001EF091FE4B4920681EF08DFE1DF08BFFD8
S2140129101DF08AFF484B494A00934949862320689F
S2140129201EF081FE47492B46474A20681EF07BFE73
S214012930284600F06BFA454920681EF074FE00BE7A
S214012940FDE70DF10F0104A811F006FC044618B3CB
S214012950364D374928681EF066FE364928681EF04F
S21401296062FE1DF060FF1DF05FFF334B334A00939C
S2140129703349952328681EF056FE32492346324ACB
S21401298028681EF050FE204600F040FA2F492868BD
S2140129901EF049FE00BEFDE7BDF8143001465BBAE5
S2140129A0ADF818309DF8133008228DF81A30FF2341
S2140129B08DF81B30FE238DF81C309DF81230182040
S2140129C08DF81D30BDF810305BBAADF81E3006AB81
S2140129D00EF0F6FC054618B3144C154920681EF097
S2140129E022FE144920681EF01EFE1DF01CFF1DF07D
S2140129F01BFF114B114A00931149A52320681EF0B5
S214012A0012FE10492B46104A20681EF00CFE28467E
S214012A1000F0FCF90D4920681EF005FE00BEFDE73A
S214012A2009B030BDA000010049EC0300E40E00200F
S214012A3027EB0300D0EA030009EC0300D8EB030000
S214012A40DEEA0300EDEA0300EAEA030002EB030014
S214012A5041EC03003EEC0300064B1B681A7A022A7F
S214012A6004D812B11B68044A13607047032AF9D0D0
S214012A70704700BF2C2B0020C00D002070B5274DDD
S214012A80A8B012AC0FCD0FC495E80700032384E865
S214012A9007008DF861302923214A2249CDE9032315
S214012AA0214B0024CDE905134FF4807307934FF4AF
S214012AB0A023CDE909440B94089319AD08AE0FCEB7
S214012AC0CDE90E4410940FC5184B0DAE2B60184B74
S214012AD01EAD0D930FCE0FC52020164B19A92B60E6
S214012AE0154B12AA2393154B2694CDE92403144BB8
S214012AF014482793144B009303AB05F009FC0446D6
S214012B009DF897304FF4E130002B0CBF03210021D4
S214012B101DF0C9FE204628B070BD00BF28EF030097
S214012B2000000650000500060008000724000650B5
S214012B30020005003C0006500828002000010100A4
S214012B40402B00207C0E0020C40D0020831E012B8C
S214012B5010B50C4619D801290DD8184B04221B694B
S214012B6005210020C3F3401303F08AFB24B1144B64
S214012B7018680368F3B910BD114B18680368002B79
S214012B80F9D0BDE8104005F091BB8B1E012B0CD887
S214012B900128F0D8BDE810400022084B05211B692A
S214012BA01046C3F3401303F06BBB0029E4D00129A0
S214012BB0DDD0E0E7BDE810401EF004BF00C00350C2
S214012BC0542B002008B50449044805F097FDBDE8DC
S214012BD00840FFF753BF00BF582B0020A40E00206B
S214012BE001481EF074BF00BF7C0E0020014B5A6ADC
S214012BF0186810477C0E0020044B834205D1044B15
S214012C001B7813B1C8B211F097BA7047AC0E00200A
S214012C102828002030B5002503685A4A23F47F434C
S214012C2023F0070385B0934204460295ADF80C5095
S214012C3000F0828002F1C06202F5802293420DD03C
S214012C40514A934240F09C80504B1B78002B00F079
S214012C50978005B0BDE830401FF0D1BAB0F8053016
S214012C60212B40F08D80FF2304A91A4611E90300A9
S214012C701DF0D2FD012814BF41F2FC15434B05F0AF
S214012C80FC0208BF1870212120790EF0AFFB054623
S214012C9018B33F4C3F4920681EF0C5FC3E492068EA
S214012CA01EF0C1FC1DF0BFFD1DF0BEFD3B4B3C4AB6
S214012CB000933C49592320681EF0B5FC3A492B463F
S214012CC03A4A20681EF0AFFC284600F09FF83849C3
S214012CD020681EF0A8FC00BEFDE736490090237967
S214012CE0354A0968354800F0EDF80546002847D012
S214012CF0274C284920681EF096FC274920681EF0BC
S214012D0092FC1DF090FD1DF08FFD244B244A00938C
S214012D102449622320681EF086FC23492B46234A59
S214012D2020681EF080FC284600F070F820492068D4
S214012D301EF079FC00BEFDE7B0F80530B7EE047A68
S214012D4007EE903AF8EE677AB0F8073067EE877AC2
S214012D50013307EE103AB8EEC77A67EE877AB1EE1E
S214012D60047A67EE877AFAFE677AFCEEE77A17EE60
S214012D70903AB3F57A7F38BF4FF47A730D4A1360F1
S214012D8005B030BDA0000602A000060128280020DC
S214012D90E40E002027EB0300D0EA0300B5EF0300A2
S214012DA044EF0300DEEA0300EDEA0300EAEA03006B
S214012DB002EB0300602B0020F92B0100AC0E002073
S214012DC0012208B5074B1A700022074B1A7004221D
S214012DD0064B1A701F22064B1A7004F049FF054B6A
S214012DE0186008BD772D002029280020762D0020A8
S214012DF0752D0020E40E0020024B034918681EF0D2
S214012E0012BC00BFE40E0020D5EF030070B50C4CD9
S214012E100C49064620681EF006FC04F029FF05460C
S214012E20206804F019FF3046FFF7E6FF284604F055
S214012E3013FF20680449BDE870401EF0F4BB00BFD4
S214012E40E40E0020D7EF0300D9EF030038B505469E
S214012E502BF02EFC00230B4A14685CB1AC4206D161
S214012E60A96A6BB199622BF01EFC012007E023468C
S214012E70A46AF2E7002DF3D02BF015FC204638BDEE
S214012E801160F0E7E80E002010B50446B0B12BF053
S214012E907FF92046FFF7DAFF10B194F82C300BB912
S214012EA0002010BD064C2368002BF9D02BF000FC47
S214012EB02368013B23602BF0F6FBF1E72220F0E7C5
S214012EC0EC0E00202DE9F04385B005469146984664
S214012ED00E469DF8307009B9002F5CD12846FFF7E1
S214012EE0D3FF0446002836D185F82C00686305F028
S214012EF0DFFD864233D92BF0DFF92146844640F2C6
S214012F00E7304FF47A720023E6FB0C0118F062FBFF
S214012F104FF0FF32002318F05DFB2B46E886114682
S214012F202846CDE900441D4A2BF060FD044690B9C1
S214012F30C5E9089885F82D702E632BF0B9FB184A61
S214012F40136833B31A469B6A002BFBD195620023A4
S214012F50AB622BF0A8FB204605B0BDE8F08347B175
S214012F602B4631462846CDE900440C4A2BF0F6F9AB
S214012F70DCE7304603A92BF0A5F904460028EAD180
S214012F802B462846CDE90077044A03992BF00AFD23
S214012F90CCE71560DBE72124DDE700BFA52F0100A4
S214012FA0E80E002091F82C3013B50C4683B98B8EB1
S214012FB0CA8E93420ED243B9CDE9003320460B4662
S214012FC0124A4FF0FF312BF0D1FCA38E0133A386BA
S214012FD002B010BD52B191F82D3093B10123009388
S214012FE0D1E908232046096BFFF76CFF012384F81B
S214012FF02C30074B1A6801321EBF1A6801321A605C
S214013000E6E708462BF0C4F8F0E700BFA52F01005D
S214013010EC0E00202DE9F041154E336833B34FF026
S2140130200008144F2BF044FB05463C6824B928469B
S214013030BDE8F0412BF037BB94F82C30A3B13368D0
S21401304084F82C8013B13368013B336094F82D303B
S21401305013B92046FFF7FAFE28462BF024FBD4E9E5
S214013060083120469847DDE7A46ADFE7BDE8F0812E
S214013070EC0E0020E80E0020034B1B68002B14BF4B
S21401308004200120704700BFEC0E0020024B186898
S214013090B0FA80F040097047EC0E002008B50348EE
S2140130A02BF0E7FBBDE808401DF06ABBE4F0030027
S2140130B001482BF0DEBB00BFE4F0030007B5082093
S2140130C01DF023FC0222064B6846CDE900231DF0C5
S2140130D0AEFB082003B05DF804EB1DF021BC00BF79
S2140130E0006A18100348044A0449121A92101DF087
S2140130F0E9BB00BF40210100202301004029002038
S21401310008B5154B83F30A8800F030F8FFF7EAFF9D
S214013110124B13498B4212D30020124B12498B4299
S21401312018D3FFF767F9186850F82240586840F836
S2140131302240013298688242F5D30C33EAE7002236
S214013140F8E71C6844F8220001325C68A242F8D312
S2140131500833E4E70022F8E7080000207C36040084
S2140131608836040088360400883604004FF400418F
S214013170134B144A70B59A60D3F88820124D42F466
S2140131807002C3F88820114A05F5005491664FF085
S214013190FF3222664FF6DF7262660222C3F8D02043
S2140131A0BFF34F8FBFF36F8F4FF44036032004F009
S2140131B045FD0320E66004F025FD2E6170BD00BFCD
S2140131C000ED00E000200100008000440090005067
S2140131D0014B1860704700BF682B0020054B186034
S2140131E0054B1B6F03F00703032B01D12AF042B9ED
S2140131F0704700BF702B00200080005000239B6AA0
S214013200B3F5903F03D21968064A914203D00023D2
S214013210037083607047012202709A689B6942605E
S214013220F7E700BF07B0CD5E00239B6A10B5B3F584
S214013230903F11D219680A4A91420DD1094C227861
S21401324012F0FD0F01D0002010BDDB699847002861
S214013250FAD101232370F6E74FF48170F4E700BF3B
S21401326007B0CD5E2A280020024B034A1A601EF0E2
S2140132708AB900BF0000002002020FF0BFF34F8F93
S2140132800549064BCA6802F4E0621343CB60BFF3FC
S2140132904F8F00BFFDE700BF00ED00E00400FA0518
S2140132A0002307B5294801932BF0E3FA4FF4407346
S2140132B0012204216846ADF8003000F095F801229D
S2140132C0234B0520C3F8442401A92BF0CDFA00288E
S2140132D039D1204BD3F8F02042F00102C3F8F02098
S2140132E0D3F8FC2042F08072C3F8FC201A4AA3F5FA
S2140132F05D431A60019B194A03F5D52303F2FC438B
S214013300B3FBF2F3164A013B13610223C2F8F03015
S2140133104FF48073C2F804334FF06043114AC3F888
S214013320B02F114AC3F8802ED3F8002E42F48072D3
S214013330C3F8002EFF2283F82020D3F8002E22F4B3
S2140133408072C3F8002E03B05DF804FBE4F00300BE
S21401335000D0035000ED00E0FF030040F8590D00D7
S214013360000004E055CEACC5090001004FF06043F3
S214013370D3F8802E30B5D20715D501240B4D8440E5
S214013380D5F8FC2042F08072C5F8FC20D3F8002E58
S2140133902243C3F8002E53F82020002AF0D003F869
S2140133A02010002030BD1120FCE700BF00ED00E03A
S2140133B008B50C482BF05DFA192004F031FC28B151
S2140133C0192004F03BFC192004F01CFC1A2004F020
S2140133D027FC28B11A2004F031FC1A2004F012FC54
S2140133E0002008BDE4F003002DE9F0410E46174623
S2140133F0054610B30F2922D80378DBB1013BDBB2B7
S214013400022B1CD8104AD35C6A78D340DB0716D54A
S2140134100E4BD3F81043A4B92BF04AF980463A462E
S2140134202846314603F0DEF940462BF03CF92046AB
S214013430BDE8F08140F2FF13E6E72224F7E72124F6
S214013440F5E70224F3E700BF2CF0030000C00350A9
S21401345010B5044608B30378E3B1013BDBB2022B97
S2140134601DD8104AD35C6278D340DB0717D52BF002
S2140134701FF90122617823788A4030214B4341F2BB
S214013480100103F1A04303F570335A502BF00BF9EA
S214013490002010BD40F2FF13E5E72220F9E72120C6
S2140134A0F7E700BF2CF0030010B5044608B3037815
S2140134B0E3B1013BDBB2022B1DD8104AD35C627824
S2140134C0D340DB0717D52BF0F3F801226178237878
S2140134D08A4030214B4342F2100103F1A04303F529
S2140134E070335A502BF0DFF8002010BD40F2FF1366
S2140134F0E5E72220F9E72120F7E700BF2CF00300DB
S214013500F8B503F065F90C250127164B00F0553484
S21401351024F05024144EC3F820440CB314F00100D8
S2140135200BD0002024F0010405FB00635A68002A32
S214013530F3D09968C0B29047EFE7234601302028C0
S2140135404FEA530301D0DA07F8D507FA00F30F283C
S21401355024EA0304E8D9103805FB0063B433E5E731
S214013560F8BD00BF00E00350F00E00202DE9F04F3B
S2140135709A46564B85B01B7806460F461546DDF82B
S2140135803C909DF844B0DDF85080002B00F0978009
S214013590072A00F296800E9B002B00F09280B9F16C
S2140135A0000F00F08E80129BB3F5006F00F3898048
S2140135B0012803D1109B002B00F08380444B03EBC2
S2140135C005131B7B002B7ED0424C1022002168463F
S2140135D027F042FA04EB45141022A7BB39462046D1
S2140135E027F03AFA43F210036380BBF1000F03D1D0
S2140135F0E37843F00303E370364A0E9B02EB451C67
S214013600CCE90193129B6901581E9DF84C30C0F31A
S2140136100A0003F003039B0643EA001E53582E4894
S214013620012E00EA03004EEA0003CDF800A0535035
S21401363017D0B8F1000F2ED19CF8023068F30413AE
S2140136408CF8023027E00021204627F005FA4FF4D7
S21401365044736380BBF1000FCED1E37843F03003AF
S214013660C9E713230CF1100ECCF80C309CE80F00C0
S2140136708EE80F006FF00301DCF81C20109B61F34D
S2140136809F02012FCCF81C20CCF8143003D1CCF8C3
S2140136901890CCF8043000270D4A290102EB0513D7
S2140136A042F80180159A28465A60694622469F606C
S2140136B05E7302F079FE384605B0BDE8F08F074824
S2140136C0FAE70748F8E70748F6E700BF2B28002087
S2140136D058110020581000200F80FFF3028000F0E0
S2140136E0018000F0078000F038B5124B05461B78C4
S2140136F0DBB1E0B12AF0DCFF0F4A00231146147B50
S21401370054B92B6001251A0101EB03131D738C506C
S2140137102AF0C9FF204638BD0133082B02F11002FA
S214013720EDD12AF0C0FF0548F5E70548F3E705485F
S214013730F1E700BF2B28002058110020048000F07C
S214013740028000F0018000F038B52AF0B1FF0023B6
S21401375005460B4A147B6CB90133082B02F11002A3
S214013760F8D102F0CDFD074B28461C702AF09BFFCE
S214013770204603E028462AF096FF034838BD00BFDE
S214013780581100202B280020058000F00D4B10B5A5
S2140137901B78044693B1072812D82AF089FF0A4BF2
S2140137A003EB04131A7B2AB100241C732AF07BFF57
S2140137B0204610BD2AF077FF0448FAE70448F8E7E8
S2140137C00448F6E72B28002058110020068000F058
S2140137D0028000F0018000F0154B13B51868002335
S2140137E001908DF804302AF063FF124B1C7824B147
S2140137F02AF059FF104802B010BD01221A702AF0B3
S21401380052FF0E4B01A81C731C7783F82C4083F8DB
S2140138103C4083F84C4083F85C4083F86C4083F866
S2140138207C4008238DF8073002F08EFD2046E2E743
S2140138302FF003002B280020038000F058110020F1
S214013840F8B50D4D2D7885B1072810DC0B4D060116
S21401385005EB0014277B67B1AB510025069BA560DD
S214013860636002F0A1FD2846F8BD0548FCE705485F
S214013870FAE70548F8E700BF2B280020581100207A
S214013880028000F0018000F0078000F00A4A08B5C7
S21401389012785AB107280BD8084A02EB00131B7B93
S2140138A043B1002102F042FD002008BD0448FCE7B8
S2140138B00448FAE70448F8E72B28002058110020AE
S2140138C0028000F0018000F0078000F00A4A08B587
S2140138D012785AB107280BD8084A02EB00131B7B53
S2140138E043B1012102F022FD002008BD0448FCE797
S2140138F00448FAE70448F8E72B280020581100206E
S214013900028000F0018000F0078000F0184B2DE9DE
S214013910F0411F6D5B6D1F4000D5FEE701260025B7
S214013920144CDFF85880374218D02368C8F8506026
S214013930A3B1A168284601316268A1609847637BFC
S214013940012B0BD150B90C4B03EB45131A7B60F3DB
S21401395041021A731A7F60F341021A770135082D66
S2140139604FEA460604F11004DDD1BDE8F08100BF40
S2140139700000045058110020581000200020045068
S2140139802DE9F04F144605460E469B46C36B87B09D
S21401399001225B6902A960689847EB6B01225B69AB
S2140139A003A93046984702A81DF0DDFB074648B13B
S2140139B00023A37563754FF0FF33A360002007B0A3
S2140139C0BDE8F08F03A81DF0DBFB0123A375237E62
S2140139D004EBC303DE611F846368B3420ED120602B
S2140139E003A81DF0EFFB4FF0FF332075A360237D86
S2140139F0043B022B26D80023A375DFE723681A1A97
S214013A0053425341A37503A81DF0DCFB237D83427B
S214013A1018BFA77503A81DF0B7FB074602A81DF03F
S214013A20B3FB874218BF002303A818BFA3751DF078
S214013A30B3FB074602A81DF0AFFB87421CBF00235D
S214013A40A375D4E703A81DF09FFB80B1EB6B0222A0
S214013A5030465B6904A9984704A81DF0A4FB0346F9
S214013A60207D032839D8DFE800F03838040903A898
S214013A70F3E7CC22237E04EBC3031A8401F0EAFAAF
S214013A80109B187003A8277E1DF072FB04EBC70776
S214013A9087F82200237E03A804EBC303B3F8209023
S214013AA093F822701DF070FB804603A81DF074FB8E
S214013AB08246B8F1000F15D0EB6B022230465B69E7
S214013AC004A9984704A81DF033FB6075637D6BB9A4
S214013AD00023A3754FF0000838E0227E04EBC202F3
S214013AE01384CBE703A81DF00EFBEEE794F81680CF
S214013AF0B8F1000FEED0B9F1000F09D1DFB1012303
S214013B00E375637E002B4FD1012F42D1677614E017
S214013B106B6C06EB0A02594286EA020008421CBF99
S214013B200021A175591E0A409B1A9945D0D8A37D3C
S214013B30002BE3D1CEE7E37D43B94FF000084B46B7
S214013B405246314628461DF04CF8A060A27D12B1BF
S214013B5023694B4423611A49237E097899422AD95D
S214013B6001332376BBF1000F27D032B3E37D23B3B5
S214013B70B8F1000F21D1032F1FD0A1684B1C1CD018
S214013B80109B2246009328460123FFF7F9FEA075F5
S214013B9013E095F8343063B9EB6A0133CFD1032FC4
S214013BA0CDD10123A376C8E7012FCFD0032FC4D1EF
S214013BB0F7E79846C3E70023A375A07DFFE600BF9D
S214013BC054F003002DE9F04F0E46984600238BB0C3
S214013BD004464FF0FF31104617468DF8133001F0BA
S214013BE023FAB6F5801F3BD3B21C53D1E56A6B1C92
S214013BF057D12046616A1CF03AFF0546B31C18BF30
S214013C000123DFF810910193636A626C02932368C3
S214013C1005A902FB053AE36B05225B695046984706
S214013C2005A81DF03BFB1DF05EFB50461DF066FB34
S214013C304FF0000B824601464B1C05D0636C81EAAF
S214013C400A025B42134232D0294620461CF00FFF7F
S214013C50029BAB424DD0BBF1000F4DD10546D3E7D9
S214013C60314605AA04F108001DF0CBF90146481CAF
S214013C7010D0384601F0D8F90122394620460DF118
S214013C8013031DF000F828B19DF8133088F80030B2
S214013C90002003E0237C002BA8D12D200BB0BDE82B
S214013CA0F08F2368ED1A636CB5FBF3F5A6E748467B
S214013CB001F0BAF90DF1130349462046019A1CF0AA
S214013CC0E2FF034690B1B21C03D0D9F80020B242FD
S214013CD00CD19DF8132003930D4B88F8002049461C
S214013CE01A68384626F0C3FE039B9B46D9F808108F
S214013CF0A2E7BBF1000FD0D0B6F5801FC8D231467F
S214013D0098F800307A6804F1080001F0BBF8BFE7C4
S214013D1050F003004C1800202DE9F34104461746E5
S214013D2098460E46194D816AE36A8B422AD04B1C8F
S214013D3018E0284601F078F90122294620460DF1BF
S214013D4007031CF0A0FF30B14346294620469DF8E4
S214013D500720B847B0B1A9684A1C05D0012E0AD081
S214013D60E36A9942E5D10DE0696820461CF00CFF34
S214013D70012E0146D8D16B6881EA0302636C5B426F
S214013D801A42D1D002B0BDE8F08100BF2018002051
S214013D902DE9F04F4FF0FF334FF6FF720025044632
S214013DA000F10806C0E909238BB0C362056205630A
S214013DB030460F461DF0F6F820461CF028FE20BBC4
S214013DC0204639461CF0A3FE20461CF020FE20BBF0
S214013DD05E200BB0BDE8F08FE26B2368606CD2F812
S214013DE014C000FB0530052205A9E04705A81DF013
S214013DF055FA012828D1294620461CF059FE421CB6
S214013E00294620461CF022FE0135E3699D42E3D394
S214013E1020461CF0FCFD0028D2D000254FF0FF39CB
S214013E204FF6FF73CA46A846C4E90853E3699845A6
S214013E3014D3A5EB0905012D36D84FF6FF72636A38
S214013E40934246D16720C4E71DF052FA0028DBD022
S214013E50294620461CF02CFE0246D1E72368E26B79
S214013E60606C576900FB0830052205A9B84705A80C
S214013E701DF014FA834605A81DF0E7F907465846D3
S214013E801DF031FA68B1574538BFC4F82480B945EA
S214013E9028BFB946BD4238BF3D46BA46236A0133FC
S214013EA0236208F10108C1E74FF6FF73002563623C
S214013EB0E3699D42C1D2676C2068E36B052207FB6C
S214013EC005005B6905A9984705A81DF0BEF90135EF
S214013ED0EEE7E26B676C2068694607FB03005569ED
S214013EE00522A84768461DF0B0F9626A2368606C2F
S214013EF04B4D00FB02301DF001FA4FF0FF33A0627C
S214013F00E3622A466FF00101204605ABFFF75AFE31
S214013F10002846D1AD6829462046E5621CF053FDCF
S214013F20206320B92046E16A1CF02EFEE062294695
S214013F3020461CF029FE0546A36A9D4233D1204641
S214013F401CF014FD00278046B946E36999453CD329
S214013F50B84559D92046616A1CF089FD00260546F8
S214013F6004F1400AB74212D8626C2368694602FB24
S214013F700539E36B05225B694846984768461DF09C
S214013F8064F9534602464946E06B1DF0B9F92946E5
S214013F9020461CF06CFD0136B0450546E2D1642092
S214013FA017E7A56AB7E7294620461CF00CFD236BE8
S214013FB0294603440746236320461CF0E5FD0546D3
S214013FC0002FB9D1C4E90B07B6E7636C2568052253
S214013FD003FB0955E36B05A95B692846984705A8C5
S214013FE01DF05CF91DF07FF958B128461DF086F9E1
S214013FF0014620461CF0E7FC636C143B984208BF60
S214014000013709F10109A0E730461CF0CBFF002378
S21401401020461946034AFFF77FFE0020D9E600BF77
S21401402078180020750C03002DE9F041036B9046CB
S214014030826B07689A4288BF8363426C436A90B07A
S21401404002FB0377C36B0E46052201A95B69044692
S2140140503846984701A81DF021F90128014630701D
S21401406057D0656CE26B2368606AD2F814C005FB12
S2140140700030052206A9E04706A81DF00FF9012821
S2140140804FF0000523D0D4E90A3201219342CDE94D
S2140140900B458DF834800E958DF83C102AD11946C3
S2140140A020461CF071FD236B626C14339B1AE06290
S2140140B023630C9B53B99DF83C303BB1626A616C3B
S2140140C02368E06B01FB02311DF0A0F80C9DE36B49
S2140140D005225B6901A93846984701A81DF0DEF85C
S2140140E030702846236BA26B9A4288BFA36310B038
S2140140F0BDE8F081237C33B91C490BAA04F1080002
S21401410000F00EFFD5E72046194A0BABFFF704FE79
S214014110CFE7237C23BB2246164904F1080000F0B2
S214014120FFFE616A20461CF0C3FC616A421C204601
S2140141301CF08CFC054620B9236B626C1344143BBF
S21401414023632046A16A1CF01FFD2368A062C01AE3
S214014150636CB0FBF3F0606220461CF058FDB6E7D6
S21401416000232046044AFFF7D7FDDAE79D48010001
S214014170194801000F0D0300AB0C030073B50D4683
S214014180D11E4A421C461B7E4A419A4226D12968C4
S2140141902368994222D3636899421FD8114E0DF1C4
S2140141A007033246FFF70EFDC0B972686B689A4284
S2140141B014D19DF80730DA1E53425341227E9342B2
S2140141C00CD1636901336361D4E90323934205D2B9
S2140141D02968A26842F8231001332361012002B046
S2140141E070BD00BF781800202DE9F04F9A468BB0BD
S2140141F09DF85030DFF850B10293DBF8103080465E
S21401420053450D461646C0F09980D146DBF804307A
S2140142100193B9F1000F00F08D80D8F83C300122EF
S2140142205B6907A90198984707A81CF0A9FFDBF866
S2140142300030984240F0858007A81CF0ADFF0428A6
S214014240074614D107A81CF0AEFF019B029A04464C
S2140142503B44002A3FD1864212D91446361A4046BC
S21401426001991CF091FCA9EB04090190D1E7D8F85B
S2140142703C3002225B69019808A9984708A8E2E742
S214014280841B544528BF5446032C03EB0607AAEBB0
S214014290040A4FEA94021CD9D8F83C30294638461D
S2140142A05B69984724F0030304F003061F441D448A
S2140142B0002ED4D0D8F83C3001225B6908A93846D4
S2140142C098473246284608A9354426F0D0FB0026F2
S2140142D0C5E72646ECE7074600F0030203920344CF
S2140142E02A1804920593049BDD1B059BD81B039B90
S2140142F09F420FD1002FB2D0D8F83C30012208A936
S2140143005B6998473A46284608A926F07BFB78B9A8
S2140143103D44A4E7D8F83C30012208A95B699847D8
S2140143200422284608A926F06DFB08B9043FDAE7FF
S2140143304FF0360948460BB0BDE8F08F4FF06309E1
S214014340F8E74FF06F09F5E7A41800202DE9F041D2
S2140143500F4616469846044688B060B390F8345027
S214014360FDB101211CF048FB00210E9BCDE9051192
S214014370CDE902379DF83C30CDF804808DF81C302D
S214014380237C04968BB90D4901AA04F1080000F0BC
S214014390C7FDDDE90553E06B002E08BF1D461CF086
S2140143A0C4FC284608B0BDE8F0812046044A01ABAB
S2140143B0FFF7B2FCEDE70546F3E700BFD90C0300B3
S2140143C07D4101002DE9F04F99B00F4609920A6927
S2140143D0416C0E931439D31DB3FBF1F3013302EB99
S2140143E0C302036B04469342C0F0B3810023DFF897
S2140143F024940D93E36A48461946079300F014FE89
S214014400D7E9033604930E9B022B4ED1CC2E40F0F7
S2140144108A81099B002B42D0394620461CF0E3FCDA
S214014420656C079A6B1E13401490ED1AE36B01221C
S2140144305B6916A97868984716A81CF0A5FE00289F
S2140144400CBF04230823782E06933DD901230025AB
S2140144504FF0080A05933B6805990E98C9F8003095
S214014460C9F810601CF0B2FE4FEA9A0310930023BD
S214014470DDF81CB089F814000B930F9308930C9386
S214014480616C4A1E0BEA02028B1A002E38D0554484
S214014490AB4240D8236B5B1A13442363ABE0049B07
S2140144A01B68149308230693D0E7656C079A6B1E66
S2140144B01340782EA5EB030516D8FB7D7BB9099B27
S2140144C0002BB3D104230693331DAB4210D9A6B1FA
S2140144D0082DBBD804250023AA460593BBE7099BF4
S2140144E0002BA3D10823EEE7099B002B9ED1D9E729
S2140144F0002505954FF0040AADE704250596F9E772
S2140145005345C7D3B0460BEB0A030393089B002B16
S21401451018BF032313E0A3EB0A039E42B0460BEB3E
S2140145200A0228BF98469E420392EFD90123D9F882
S214014530102089F81730964271D1C9F804B0089353
S21401454099F81730002B6CD099F818200899D31CCD
S21401455009EBC3030132C3F804B0A3F808809972CB
S21401456089F81820B8F1000F14D00E9B022B5BD1EE
S2140145700B9B7BB90F9B4344032B0BD9E36B0122A7
S2140145809B69039814A998470546002840F0E380E4
S21401459001230B93089B16A80193059B009399F89A
S2140145A014204346396800F0F5FCE36B58469B69D6
S2140145B0109A16A99847051E0D9B18BF5B465246D2
S2140145C00D935946434620461CF00BFB236B08F11E
S2140145D00302A3EB0A0322F003029B1AC9F80800A0
S2140145E02363002D40F0B7800F9BDDF80CB04344E9
S2140145F0A6EB08060F93594620461CF0C5FA00257F
S2140146008346002E7FF43CAF824A3968936804F1F2
S2140146100800E36252680E9B00F034FC84E002233B
S2140146208DE7C9F804B09DE7099B002B30D1049BA8
S214014630B8F1030F43440A9327D9DDE90301E36B7D
S2140146404FEA98029B6998470546002865D118F0FD
S21401465003025FD0049B28F003052B440493039BBD
S2140146601D444FF0FF33049915A8159326F0FFF962
S214014670E36B28469B69012215A9984705460A9BC4
S2140146800493002D86D0039B99E74246039DE8E7F5
S214014690039B0A9307F120031193FB7D78689BB176
S2140146A000233D7E0C9AD9B28D4211D9119903F19E
S2140146B0010C31F83310914226D9069907EBC30352
S2140146C0D8690A44104403E00C9B069A1344184424
S2140146D0E36B01225B6915A99847159B0122139389
S2140146E00C9B0A9804330C93E36B13A99B699847B8
S2140146F0039B0A9A43449B1A042B054607D978B9AB
S214014700134604330A93C8E76346521ACBE70A9B5B
S2140147100393B6E70A9B04933CE70A9B0493B2E72C
S2140147200A9B0393AFE77026304619B0BDE8F08FB9
S2140147304FF0000A4FE03A69616CD31D1439B3FBA0
S214014740F1F3013302EBC302236B9342BFF452AE83
S2140147505DE01C26E8E73D2D59D104F108030393DB
S2140147602368079A606CA2EB030ABAFBF0FA00FB17
S2140147700A301CF0C3FDE16A804620461CF004FAAC
S214014780A26A8242D7D0626CD9F80830511E0B401B
S214014790216B2668891A0B4423630D9BE0629E1BDE
S2140147A0B6FBF2F6B245C3D1079BB3EB080A12D0AB
S2140147B0E36B4FEA9A0241469B6998478346E36A50
S2140147C0079A5344E362236B03989B1A434423637B
S2140147D01CF0E8FBDA462368616CE06B01FB0631EE
S2140147E01CF001FD20461CF012F920461CF00FFAC1
S2140147F02063BAF1000F9ED03A69616CD31D14395B
S214014800B3FBF1F3013302EBC3029042A8D22E466A
S2140148108AE700BF4C180020032A2DE9F34106461B
S2140148200D4617461C4606D1237A012B23D00120BC
S21401483002B0BDE8F081DFF86080096842460DF1FC
S2140148400703FFF7BFF960600028EDD19DF8072048
S214014850237A032AE8D0D8F804106A689142E3D193
S214014860012B2969D4F80CC007D172690CEB01033E
S214014870934202D92074207CDAE708316144E16072
S2140148803B46012229463046FFF79CFD6060002822
S214014890CAD00020CCE700BF781800202DE9F341EC
S2140148A0089C032A1746266806D1237A012B24D0B2
S2140148B0012002B0BDE8F081DFF890803046424624
S2140148C00DF10703FFF77EF960600028EDD125683A
S2140148D0D8F80400A96AD5F844C04840CCF10003D2
S2140148E01840227AE1D1012A09D1E268D8F81030BD
S2140148F013447269934202D92074207CD9E7286850
S214014900EB6A1B1A081AB3FBFCF3B0FBFCF08342FC
S2140149100BD1706CF36A421E1340326B121A1344A9
S214014920284633631CF030F9E862D8F81020E368B3
S21401493008321344E36001223B4604492068FFF72E
S21401494041FD60600028B0D00020B2E77818002052
S2140149502DE9F0410025634B0E46D3F8008004464E
S2140149601D6018B921252846BDE8F08190F83470FD
S21401497007B30A6803689A4240F0AA804A68436807
S2140149809A4240F0A5808A6883689A4240F0A080E7
S214014990CA68C3689A4240F09B800A6943699A4292
S2140149A040F096808A69C36B9A4240F091804B69C9
S2140149B08361D8E768223946856B26F04DF8D6E93B
S2140149C00212336804F1080023607368A56363600C
S2140149D0336963617369A3611CF0F6FAB36904F184
S2140149E04000E3639B68984720B9676C17B163681A
S2140149F0B3FBF7F794F84330E761002BB2D00023FE
S214014A00656C2366002D6BD0002F69D02368B3FB3D
S214014A10F5F205FB1233002B5CD16768B7FBF5F6A0
S214014A2005FB1676002E55D120461BF0BCFFA36968
S214014A30043303449F424FD340F634726369CC3B40
S214014A4093424BD8B5F5805F4AD3032120461BF02D
S214014A50D3FFD4E90001E36B1B6898470546E36B77
S214014A600220DB6898472DB184F83460E06B1CF0B7
S214014A705CF978E741462046FFF78AF9642805463F
S214014A8004D141462046FFF783F90546636C143B83
S214014A90D5B9226A204602FB03F61BF084FFA36900
S214014AA0043303449E4203D284F834505A25DDE78A
S214014AB00123D4E900010C4A84F834301368013329
S214014AC013601CF01BFBD1E7002384F83430CDE7DC
S214014AD05D2548E7592546E75A2544E75F2542E71D
S214014AE05B2540E7DC110020D81100202DE9FF41AD
S214014AF00C4616461F46054680B390F834307BB305
S214014B00B1F5801F2ED2DFF8608001211BF074FF03
S214014B102146424628460DF10F03FFF753F8044697
S214014B2070B99DF80F30012B11D1D8F81030BB4267
S214014B3012D10246009031462846FFF755FB04463F
S214014B40E86B1CF0F2F8204604B0BDE8F081022BB9
S214014B5014BF2D246024F3E76324F1E72124F2E750
S214014B601124F0E72924EEE7A41800202DE9F043EC
S214014B7085B00C4617461E460546DDF8308098B3CC
S214014B8090F8343093B3B1F5801F31D2DFF86490DA
S214014B9001211BF031FF21464A4628460DF10F033D
S214014BA0FFF710F8044688B99DF80F30012B14D191
S214014BB0D9F8102006EB08039A4213D30090434617
S214014BC0324639462846FFF70FFB0446E86B1CF0D1
S214014BD0ACF8204605B0BDE8F083022B14BF2D24A7
S214014BE06024F3E76324F1E72124F2E71124F0E7D8
S214014BF02924EEE7A41800202DE9F3411F460023DF
S214014C000C46164605463B6050B390F834304BB31D
S214014C10B1F5801F28D2DFF8548001211BF0ECFE8D
S214014C202146424628460DF10703FEF7CBFF044610
S214014C30A0B99DF80730032B10D0022B0AD101230F
S214014C40336004233B60E86B1CF06FF8204602B02B
S214014C50BDE8F081D8F810303060F3E72D24F2E794
S214014C602124F3E71124F1E72924EFE7A418002013
S214014C7073B50446056B1BF096FE636E03449D42B6
S214014C802CBF00230123854294BF00252D1A207CCA
S214014C9084F85030656584F85800A8B100230C4E9E
S214014CA01A461946204600961CF06AF90023054666
S214014CB01A461946204600961CF06BF9E36828440C
S214014CC0984294BF0020C01AE06502B070BD00BFD4
S214014CD0FFFF0F002DE9F3471E4643690446B34222
S214014CE0884617469DF828904ED300258DF8075024
S214014CF020461BF058FED4F830A082450AD2236A1B
S214014D00B5EB430F06D2002220460DF10701FFF74F
S214014D108BF9B8B39DF80730012B05D10022204648
S214014D200DF10701FFF780F9B9F1030F06D03146FF
S214014D3020461BF028FE256B854227D3144D4FF0E5
S214014D40FF31284600F070F94B46294600222046DE
S214014D50C5E90376C5F80080FFF734FB236E0546E8
S214014D6063B12046FFF784FF94F8503013B994F8E6
S214014D7058301BB1236E04F150009847284602B004
S214014D80BDE8F0870135B3E76225F7E71C25F5E7AF
S214014D90781800202DE9FF410F4690461E4605462D
S214014DA098B390F8343093B3B1F5801F31D21A4CD2
S214014DB002211BF021FE2246394628460DF10F033B
S214014DC0FEF700FF024678B10123424600933946BA
S214014DD033462846FFF77EFF0446E86B1BF0A5FF27
S214014DE0204604B0BDE8F0819DF80F30012BEBD1D1
S214014DF02169B142E8D10093414633462846FFF780
S214014E00F3F904460028DFD1E7E72124E8E7112477
S214014E10E6E72924E4E700BFA418002030B50C46D5
S214014E20054685B028B390F8343023B3B1F5801F1A
S214014E3023D202211BF0E0FD0DF10F032146284687
S214014E400F4AFEF7BFFE034688B99DF80F20032AD6
S214014E500DD003222146009202462846FFF73AFF6C
S214014E600446E86B1BF061FF204605B030BD2D24DB
S214014E70F7E72124F8E71124F6E72924F4E700BF31
S214014E80A41800202DE9F043466886B305689846C5
S214014E904FF0000CA946AE4655F83C400CF1010C0B
S214014EA0C4F31307013401D0B94217D066450EF199
S214014EB0080EF1D12F46002403E0A64207F10807A9
S214014EC012D055F8343001340133F6D1C1F3130151
S214014ED041EA0851C7E90012BDE8F08341EA0851EA
S214014EE0CEE90012BDE8F083B8F1030F03D1012328
S214014EF00372BDE8F083002303E09E4209F108092E
S214014F00F5D055F833400133C4F30754032CF4D1DC
S214014F10C1F3130343EA0853C9E90032BDE8F0833D
S214014F202DE9F0410646406882B0C0B10F46904672
S214014F300024336853F8345003EBC403C5F3075217
S214014F40C5F31301013504F1010406D05B68304650
S214014F50CDF80080B84710B170688442E9D302B03A
S214014F60BDE8F081024B1968024B1868FFF7F0BCE8
S214014F70742B0020942B002008B529F090FB014BE0
S214014F80186008BDD0180020014B186829F082BBB4
S214014F90D018002073B504462248012A00EAC11140
S214014FA09DF8185023F07C4007D9961E012E28D96B
S214014FB0073303F07F03194308E09DF81C300A43CA
S214014FC0DB0603F0C053134343F060410023C4E9FA
S214014FD000108DF80730B5B1202221460DF10700EB
S214014FE01CF0A8F91A220DF10700211D1CF0A2F9E8
S214014FF0082063689DF8072043EA8263636002B075
S21401500070BD1143E2E71B220DF1070021461CF09B
S21401501091F923689DF80720042043EAC2632360C0
S214015020EDE700BF80FFFF0738B5094B0D461A684C
S2140150300021044625F010FD00234FF0FF322383A4
S214015040C4E900252361A260E382A37638BD00BFD0
S21401505050F003000138C0B205289ABF014B185C16
S2140150600120704755F003002DE9F041074615462B
S21401507000240E46596888B0490A012922464FEA9B
S214015080510104F10104F8D8DC78997824031B88CF
S214015090C90201F4006104F480540C43C3F30A030B
S2140150A05203234492B24FF000089C18274B6FEA34
S2140150B00444039325F07843ED4302A90DF107005C
S2140150C01B2202938DF807801CF034F99DF8072007
S2140150D0029B02A943EAC2630DF107001B2225F0D9
S2140150E07845049302958DF807801CF023F99DF806
S2140150F00720029B6FEA144443EAC26305934FF00C
S214015100FF330794069307A9BB69012206F1100035
S2140151109847BB6905A90446012206F1080098478D
S214015120BB69404518BF044604A90122301D9847B3
S2140151300122404518BF0446BB69304603A998477B
S214015140404508BF204608B0BDE8F08101009AB28C
S214015150044BD3F88420D206FBD4D3F88400C0F3E2
S214015160811070470040005038B5184B0546D3F8FB
S21401517024010C4600F00700062823D8DFE800F0DB
S214015180040A121A1E0E1600012305B1286004B186
S214015190236038BD28F048F90523F6E728F044F9DE
S2140151A00623F2E728F080F90323EEE728F07CF9DE
S2140151B00423EAE728F074F90223E6E728F07AF9EF
S2140151C00723E2E700231846DFE700BF0080005010
S2140151D038B5104B0546D3F800310C4603F00303EF
S2140151E0022B0BD0032B0DD0012B0FD128F05CF92D
S2140151F0032305B1286004B1236038BD28F05EF9A9
S2140152000823F6E728F056F90723F2E701230020E2
S214015210EFE700BF0080005038B5104B0546D3F8C5
S21401522020310C4603F00303022B0BD0032B0DD0C9
S214015230012B0FD128F0F8F8052305B1286004B139
S214015240236038BD28F030F90323F6E728F028F963
S2140152500223F2E701230020EFE700BF00800050A1
S21401526038B5104B0546D3F840310C4603F003031E
S214015270022B0BD0032B0DD0012B0FD129F004FAF2
S214015280092305B1286004B1236038BD28F016F95A
S2140152900823F6E729F0FBF90B23F2E701230020A8
S2140152A0EFE700BF0080005038B5104B0546D3F835
S2140152B060310C4603F00303022B0BD0032B0DD0F9
S2140152C0012B0FD129F0E0F9092305B1286004B1BB
S2140152D0236038BD28F0F2F80823F6E729F0D7F95D
S2140152E00B23F2E701230020EFE700BF0080005008
S2140152F02E4B98424AD022D82D4B984240D014D8F3
S2140153002C4B984239D00AD82B4B984232D02B4B93
S21401531098422FD02A4B98422CD000207047294B18
S2140153209842FAD1284B186F7047284B98422AD0DA
S214015330274B9842F1D1244BD3F880007047254B78
S21401534098422BD009D8244B984223D0234B98421D
S214015350E3D11D4BD3F88C007047214B984221D0E6
S21401536003F5740303F510539842D6D1164BD3F8C0
S21401537098007047144B986D7047134B586E7047E2
S214015380114B586F7047104B986F70470E4BD3F800
S214015390840070470C4BD3F8880070470A4BD3F84B
S2140153A090007047084BD3F8940070470048E80116
S2140153B00024F400C0CF6A0080841E0000093D006E
S2140153C040420F00405DC6000080E00FC0EA2101A8
S2140153D080BA8C01007E560380D54302006CDC0245
S2140153E00090D00373B50D4600210E4B0191D3F802
S2140153F08041064604F00304012C09D0022C0CD08F
S2140154000C460EB1019B336005B12C6002B070BD35
S21401541001A8FFF701FF0F24F3E728F041F80190F8
S214015420EFE700BF0080005038B5104B0546D3F8B3
S21401543040320C4603F00303022B0BD0032B0DD096
S214015440012B0FD129F020F9092305B1286004B1F9
S214015450236038BD28F032F80823F6E729F017F95B
S2140154600B23F2E700231846EFE700BF0080005049
S21401547038B5144B0546D3F800020C4600F0070079
S21401548004281BD8DFE800F003090D1115000123DD
S21401549005B1286004B1236038BD29F0F5F8092369
S2140154A0F6E728F00BF80823F2E729F0F0F80B23CB
S2140154B0EEE727F0DFFF0E23800AE9E70023184610
S2140154C0E6E700BF0080005010B40D4C0B46D4F840
S2140154D0204204F00304012C0AD0022C0CD008B19F
S2140154E0002101600BB100221A605DF8044B704781
S2140154F05DF8044BFFF790BE5DF8044BFFF7B0BEB6
S21401550000800050B0F5207F1FD009D8B0F5007F8D
S21401551015D003D868B1B0F5C07F0AD000200CE0E2
S214015520B0F5607FFAD10B4BD3F88000C0F30110C1
S21401553003E0084B186FC0F3033001307047054B8A
S214015540D3F89000C0F30460F7E7024B186FC0F37E
S2140155508020F2E7008000504FF400320E4B0146E7
S21401556010B500209A66FFF7CDFF484341F6713229
S2140155700A490B4B884294BF00200120DC69DA639C
S2140155809A6822F4401242EA00529A60E20344BF4B
S2140155900022DA6310BD00BF00900050005A62027C
S2140155A000000350420910B50FD0012A0FD00A4B54
S2140155B00A4C022A18BF234600F01F0049B103F522
S2140155C08053012282401A6010BD1346F4E7044B53
S2140155D0F2E703F50053F4E768800050608200505C
S2140155E0648000501FB50021B0F5807F044601910C
S2140155F000F0068100F29D80612800F295801F2848
S21401560005D8002840F0928027F034FFDCE0A0F1B6
S2140156102004412C00F28A8001A353F824F000BF35
S21401562009560100CD57010009560100CD5701006A
S214015630ED570100ED570100ED570100ED57010050
S214015640CD570100CD570100A75701006157010052
S214015650235801002D58010061570100CD57010064
S214015660CD570100CD5701002D5701002D570100E0
S2140156702D5701002D5701002D5701002D57010010
S214015680F757010083570100CD570100CD570100A0
S214015690CD5701004158010037580100CD57010090
S2140156A02D5701002D5701002D5701002D570100E0
S2140156B02D5701002D5701002D5701002D570100D0
S2140156C02D5701002D5701002D5701002D570100C0
S2140156D02D570100095601002D57010009560100FA
S2140156E00956010009560100ED5701002D5701002A
S2140156F02D5701002D5701002D5701002D57010090
S2140157002D5701002D5701002D5701002D5701007F
S2140157102D5701002D5701002D5701002D5701006F
S214015720095601000956010080284BD0019804B0A3
S21401573010BDB0F5A06F5ED028D8B0F5607F50D010
S21401574019D8B0F5007F4CD004D8B0F5C07F3FF42F
S2140157505BAFEBE7B0F5207F38D0B0F5407FE5D101
S21401576027F088FE02464FF42070FFF7CBFEB2FB0F
S214015770F0F2520833E0B0F5806F37D0B0F5906F95
S214015780D4D1002101A8FFF7EFFCCFE7B0F5E06F19
S21401579051D00DD8B0F5C06F43D0B0F5D06F45D01D
S2140157A0B0F5B06FC2D1002101A8FFF71BFEBDE71F
S2140157B0B0F5F06F44D0B0F5086FB7D101A8FFF788
S2140157C007FDB3E727F036FE0190AFE727F052FE5C
S2140157D002464FF42070FFF795FEB2FBF0F20192FD
S2140157E0A4E727F027FE02462046F4E7002101A899
S2140157F0FFF712FD9AE7002101A8FFF765FE95E77E
S2140158004FF0E02302911B695B0705D527F032FEB6
S2140158100290029B019389E703A902A8FFF720FDE6
S214015820F7E7002101A8FFF71BFD7FE7002101A88C
S214015830FFF71EFE7AE7002101A8FFF7F5FD75E7E1
S214015840002101A8FFF730FD70E700BF08B58020F2
S214015850FFF7C8FE034B98429EBF4FF48032024BBF
S2140158601A6708BD005A620200A000501FB5034621
S2140158700020B3F5807F01906FD027D8382B00F039
S21401588082800BD8243B092B0FD8092B0DD8DFE8D3
S21401589003F05F5F5F5F0C0C5A0C3675522B57D0C6
S2140158A007D83D2B3AD03E2B72D0019805B05DF853
S2140158B004FB802BF9D1394B1B6F03F00703013B27
S2140158C0032BF2D8DFE803F03D36393BB3F5D06F52
S2140158D054D019D8B3F5A06F55D00AD8B3F5806F58
S2140158E036D0B3F5906FE0D1002001A9FFF73CFC5C
S2140158F0DBE7B3F5B06F26D0B3F5C06FD5D1002086
S21401590001A9FFF7ADFCD0E7B3F5006FECD00AD8DC
S214015910B3F5E06F3CD0B3F5F06FC6D1002001A916
S214015920FFF7C2FCC1E7B3F5086FBED101A9FFF7C7
S2140159304FFCBAE705230193B7E70323FBE70723E9
S214015940F9E70223F7E7002001A9FFF74BFDACE7D3
S214015950002001A9FFF760FCA7E74FF0E0230290C3
S2140159601B695B0705D527F085FD0C230393039B75
S214015970E1E703A902A8FFF773FCF8E7002001A9F5
S214015980FFF776FD91E7002001A9FFF79DFD8CE763
S214015990002001A9FFF748FD87E700BF00800050FF
S2140159A04FF48032074B0849586E03F580535A6608
S2140159B00B6A23F001030B62C3035CBF034B5A66F9
S2140159C0704700BF0080005000C0075000A0005084
S2140159D008B5FFF74BFF082811D00938012802D96E
S2140159E04FF6FF7008BD4FF40012064B5A6603F5DA
S2140159F0D8335B6ADB07F3D54FF4FA70F2E7024B54
S214015A001888EFE700900050622D002008B5FFF7D8
S214015A102DFF03280ABF024B4FF6FF70188808BDFA
S214015A20602D0020F8B504468020FFF71FFF0328ED
S214015A3000F087804FF40022424B02215A6645F659
S214015A400E03414AC2F88030404B9962012103F5AA
S214015A5080539962936DD903FCD4D4E900131B05D6
S214015A6043EA0163E17B94F820500B43217BE77EF8
S214015A7043EA0143617B6D0143EA0133A17B43EABB
S214015A80811313619169D4E904031B0643EA806319
S214015A9001F000410B43A17E94F823000B43217EC5
S214015AA043EA0143617E43EA01239361136AE6698F
S214015AB023F00D0394F8221043EA8703002E2DD11C
S214015AC01362966A94F8213045EA031326F03305EB
S214015AD02B4343F0010393621D4D1B4B9A6D35EA30
S214015AE00202FBD10222194DAA621A659A6D520072
S214015AF0FCD41A69A56822F4700242EA05521A61BA
S214015B004FF00042114B9A6119B9022203F58053F6
S214015B109A6278B901220F4B9A620BE0334343F045
S214015B2008031362936A23F0330303432B4343EAC8
S214015B304103936294F824301BB1034B064AC3F821
S214015B408020F8BD0090005000C0005000D00050EA
S214015B500300014000E00050F1A7FFFF014B93F95D
S214015B60000070472D280020F0B5D0E901434FF41E
S214015B7080061A4A4178057856664FF4D1560227B0
S214015B8002F5B8325662164E4F2977604FF001077C
S214015B9028BF4F2106F5805677601669F603FCD4B8
S214015BA041EA052151611B01417B43EA04230B4372
S214015BB0017B43EA41039360C37B817B1B0143EA7C
S214015BC04113417C0B43017C43EA41035360837CD0
S214015BD013B16FF4D1535362F0BD00BF0090005073
S214015BE000100250014B1880704700BF622D002044
S214015BF0014B1880704700BF602D00204FF4001243
S214015C0008B5184B5A660223174A5360936813F473
S214015C108033FBD1012822D127F046FC134B984252
S214015C2015D003F5122303F5F863984213D0104BF1
S214015C3000EB8002400AB3FBF0F3520A0A49CA623B
S214015C400B6301234B620022074B5A6008BD45F6E1
S214015C507A13084AF2E745F61A03074AEEE7536253
S214015C60F1E700BF009000500040025000F04902EA
S214015C7064666666D8B80500BBCF0500B0F5207F20
S214015C8010B50C4642D008D8B0F5007F33D003D803
S214015C9088B1B0F5C07F0ED010BDB0F5607FFBD1E6
S214015CA01F4A4C1ED2F8803023F0300343EA041317
S214015CB0C2F88030F0E71BF05BFB1BF067FB4FF48C
S214015CC08031184B164A1967136F013C23F4704351
S214015CD043EA0433136727F0CDFB0446FFF738FA8F
S214015CE0C0F1020120461BF04BFB00F035F8BDE881
S214015CF01040FFF7ABBD0A4A4C1ED2F8903023F095
S214015D00F85343EA0463C2F89030C5E7044A4C1ED0
S214015D10136F23F4806343EA84231367BCE700BF51
S214015D20008000500090005008B50121022000F0CC
S214015D3055F94FF42070FFF7E5FB054B18701BF083
S214015D4017FB1BF023FB4FF48032024B1A6708BD8A
S214015D502C2800200090005008B54FF4C070FFF7C3
S214015D6041FCBDE808400449884294BF0121022154
S214015D704FF42070FFF782BF80F0FA0238B5044670
S214015D8027F078FB0546FFF7E3F9C0F10201284644
S214015D901BF0F6FA0121002000F060F92CB1FFF7A4
S214015DA0DBFFBDE83840FFF751BD034B4FF42070D1
S214015DB01978FFF763FFF4E72C2800204FF4C02280
S214015DC070B50546FFF794FA314B04465A6603F55B
S214015DD098335A68012A04D12E494A609A69920773
S214015DE0FCD18020FFF742FD052807D11BF0C0FA41
S214015DF01BF0CCFA4FF48032254B1A67264B24F061
S214015E0040749D4230D0254B9D4230D027F00CFB8C
S214015E108542064603D90121284600F01FF9204B8A
S214015E20DA6812F0060FFBD199689C609A686240A6
S214015E3012F4F81F1ED12846FDF7CAF98020FFF795
S214015E4015FD05280DD127F015FB0446FFF780F94F
S214015E50C0F1020120461BF093FAFFF77DFFFFF722
S214015E60F5FCAE420CD270BD44F00074CEE744F0AF
S214015E708074CBE780209960FFF7F8FC052805D0F1
S214015E80BDE870400121002000F0E8B83546DAE7A9
S214015E900090005000E0015040420F0080841E0038
S214015EA00000015010B5224B70B94FF40031214A61
S214015EB01860516602F598325268012A03D11E4ACB
S214015EC0D2F800211A6010BD1B68002BFBD01B4ABC
S214015ED05268012AF7D0184A8020C2F80031FFF72D
S214015EE0C5FC05281FD14FF4C070FFF70BFB012836
S214015EF0044604D102214FF4C070FFF7BFFE07220B
S214015F000F4B1A610122A3F580535A600B4A13699D
S214015F10DB07FCD5012CD6D12146BDE810404FF455
S214015F20C070FFF7ABBE0122064B5A60CBE700BF3D
S214015F30D4180020009000500080005000C001508E
S214015F4000E0015000D00150044A4178536F23F419
S214015F50407343EA01235367704700BF0040005077
S214015F6010B5044610B10020FFF79CFF124A1369D2
S214015F7043F00403136128F009F81BF00CFA0F4BE9
S214015F805B6E5B0142BF0E4B0E4AC3F8202428F01D
S214015F9086FB28F091FD28F07DFB1BF0FDF902F051
S214015FA0DBFC1CB9BDE8104027F064BA0120BDE84F
S214015FB01040FFF777BF00BF00ED00E00080005003
S214015FC000E003500000FF0F034A0179D36E23F06F
S214015FD030030B43D366704700400050F8B50446C3
S214015FE01C4BD3F88420D106FBD4D3F88430C3F3FA
S214015FF081139C422CD027F01DFA012C064602D1B3
S21401600021461BF0BDF928F04AFB4FF00072124BF7
S21401601007465A6620461BF0C6F94FF480630D4DBD
S214016020621E93402B676B6E9A0103D4D5F88430B9
S2140160309B060AD5384628F02DFB022C08D130469F
S214016040BDE8F84000211BF09BB9D5F88430EAE79B
S214016050F8BD00BF004000500060005010B50C466F
S21401606008B927F0E7F9074B21461B783BB1064BE9
S214016070984204D80120BDE81040FFF7AFBF0220C8
S214016080F9E700BF2E280020005A62020278034B6F
S214016090012100201A70FFF7E1BF00BF2E28002063
S2140160A04FF0004238B5264B26495A6601224A600F
S2140160B04AF6CD3103F50B235D6C1964154030BBF0
S2140160C09968C9070BD4002401221F4B5A6015B1E9
S2140160D01E4B1F4A1A6423F0DFFD204638BD1A49BD
S2140160E08A601C4AD96ACC0705D4904201D107249C
S2140160F0EAE70130F6E79042E5D1F8E70132DC6ADB
S21401610014F0080406D08A42F8D10724DFE70022FB
S2140161101049F4E78A42F8D020220B4B0B495A6209
S2140161200122A3F580539A6023460A4A486A8006EC
S21401613003D49342E9D00133F8E79342C7D1E4E7A9
S214016140009000500050095000600950004009506E
S2140161503254FFFF40420F004FF0004238B5174B54
S214016160174C5A66012203F50C235A604AF6CD33C2
S214016170656C2364437893401343124AD363C37810
S2140161808178A2689B0043EA011322F0740213434C
S214016190A3600279837943EA022323614279C379B2
S2140161A043EA022363610078FFF77AFFEB0744BFF7
S2140161B0054B236423F070FD012038BD009000508C
S2140161C000400950004000503254FFFF072A2DE9D5
S2140161D0F041154698464FF0030401F003072DD809
S2140161E09600B44000FA06F221461C481BF0DCF883
S2140161F021461B4807FA06F21BF0D6F8194B1A4936
S2140162009DF81800B8F1000F18BF1946012303FACC
S21401621005F50D60154B1649002818BF0B461D6085
S214016220144B9DF81C00C3F82054103103F224438C
S214016230002818BF0B461D60BDE8F081A2F10806D4
S214016240B600B44000FA06F221460B481BF0ACF843
S21401625021460A4807FA06F2CEE700BF00C40350FB
S21401626008C4035010D4035010E4035014E4035040
S21401627014D4035000E0035004C403500CC403506C
S214016280F8B504460D461F4616464AB101238B4013
S2140162903021184A01FB0022F7B141F21001535098
S2140162A004EB4403072D4FF00F014FEA031316D8F2
S2140162B0A80006FA00F281400F4818441BF074F853
S2140162C04EB9012330210B4AAB4001FB042277B1C2
S2140162D041F210015350F8BD42F21001DFE7A5F17B
S2140162E00800800006FA00F281400448E5E742F221
S2140162F01001EFE700C0035004C003500CC0035068
S21401630010B5152001F06CFC0024FF22064B214637
S2140163105C6520209A625C60FFF744F92146BDE87F
S21401632010402120FFF73EB900000450044A054BF7
S214016330002908BF1346012282401A60704700BF39
S214016340401004504020045010B50121044620207E
S214016350FFF728F901212120FFF724F90122114B2B
S21401636015205A60227812069A606178A27842EA6D
S21401637001429A61FF229A6200229A631A644FF0E0
S21401638000425A654FF0FF3203F500531A6501F0DB
S21401639055FC1520E1781BF0F8F8BDE810401520F3
S2140163A001F030BC00000450F8B50125C3B21E4F01
S2140163B0D1F800C09D408E7ACB7A0C46097B3D65AC
S2140163C007F5005747F820C04FF0300C0CFB00F0E3
S2140163D01B05677B00F1A04043EA064300F58020D9
S2140163E043EA415322F003020766C365026728F0B9
S2140163F05FF90E4B227A5D6502B11D64627A02B1C5
S2140164009D632279A37943EA0243074A936161793E
S214016410E37943EA014305498B61054B55639D6466
S214016420BDE8F84028F03FB90020045000100450A1
S2140164300000045010B50124C0B2844028F038F999
S214016440044B5A6D22EA04025A659C62BDE810406C
S21401645028F029B90000045010B50124C0B28440C8
S21401646028F026F9074BDA6A224208D15B6B9C4377
S2140164700CBF0124002428F016F9204610BD002484
S214016480F9E700BF0000045070B5054628F010F982
S2140164903022084B5E6B02FB05335C6E28F003F975
S2140164A00123EDB2AB4033420ABFC4F30A10002009
S2140164B0013070BD000004504FF40032054B9A665F
S2140164C041F6713203F51C33DA63012203F50053FA
S2140164D0DA6070470090005041F671320121064B98
S2140164E0DA6303F50052D1600022DA634FF400321A
S2140164F0A3F518339A66704700000350CB784A78A4
S21401650010B55B010C7843EA82030A79234343EA18
S21401651002130C22424302F1B0421363012C02BF64
S2140165208A78024B43F8202010BD00BFE880035054
S21401653008B54FF0B0435A686AB958B15B680BB1F9
S2140165401AF041FF01210D4B59601AF03CFF4FF044
S214016550B043D96008BD5B680BB11AF034FF002860
S214016560F0D11AF030FF4FF0B0430222DA601AF091
S2140165702AFF0122024B5A60ECE700BF00100058C8
S214016580002000584FF0B0414B6810B50BB11AF01F
S2140165901AFF01220B4BC4785A608378934043EA72
S2140165A0840344782343047943EA0413447943EA91
S2140165B0C4038B60044B5A600378C3F10203CB60BB
S2140165C010BD00BF00200058001000584FF4803264
S2140165D0064B5A6603F5E6235B69C3F385128270A0
S2140165E003F03F021B0B427003707047009000508F
S2140165F0014B986CD96C70470080E00F024B18680D
S214016600C0F30740704700BF0080E00F0120034B36
S2140166109B680A3303F01F03984070470080E00F21
S21401662070B5054616461C4621B94FF42070FEF794
S214016630D9FF0146402C1BD003D8DCB1202C1BD03F
S21401664070BD602CFCD1042303FB06F2530803EB58
S2140166504113B3FBF2F36021084A203B02EAC3036D
S21401666005F50052916005F580529460EB61E7E70D
S2140166700623E9E71023E7E70823E5E7F8FF7F00AD
S214016680012200F580535A6040F6AA6341F20502E2
S214016690436100230B498360C365C26000F5005265
S2140166A00361C361C364916407498365884203D16A
S2140166B003650023436502E004498842F8D00123BC
S2140166C053607047FFFF010000C0055000000650F0
S2140166D070B50D46FFF7D4FF012300F580567360B1
S2140166E0AB7C04461BB1836843F080438360EB7C3C
S2140166F04BB1344A2B7D944243D1A2F51032C2F8F5
S2140167008C318023F3652A8A6B7B20461343EA8902
S2140167101343E3602B7BD5E90112FFF781FF6B7D05
S2140167201BB1A36843F48033A360AB7D1BB1A368A0
S21401673043F40043A360EB7D2A7E1B07120502F497
S214016740E00203F0E0431343A365697E1D4A8B1EF6
S214016750012B1D4B1FD894421BD002F58042944258
S2140167600CBF01224FF0FF3203EB4213022041F22D
S2140167701C620329985020D10423F3652B786361AA
S21401678070BD124A944204BFA2F52032C2F89C3171
S214016790B7E70022E8E794420DD00C4A94420CBFBA
S2140167A001224FF0FF3203EB4213022042F21C6239
S2140167B001299850DFE70022F5E7042204F500538B
S2140167C0DA65DBE700C0055000C003500000065044
S2140167D0034BD3F82424D3F820041040704700BF9D
S2140167E000C003502DE9F8431E4B0546D3F810337D
S2140167F04B1E0E2B0E46174690F8009044781DD976
S21401680009B34FF000082846D7B127F057FF09EB28
S2140168104903072C4FF00F014FEA031315D8A400C4
S214016820114808FA04F2A14018441AF0E8FDBEB96E
S21401683028468FB1BDE8F84327F040BF8846E2E717
S2140168401AF0ECFDE3E78846E1E7083CA4000748B8
S21401685008FA04F2A140E7E7BDE8F8431AF0DEBD06
S214016860BDE8F88300C0035004C003500CC00350B9
S2140168704FF48032084B5A6603F5E6235B691A0B20
S214016880027003F03F0242704FF6FF72C3F38513A6
S21401689042808380704700BF00900050014B986C87
S2140168A0D96C70470080E00F70B5044623F0C0FA3B
S2140168B0064630B90FCC044D0FC594E8030085E8B1
S2140168C00300304670BD00BFD818002047F6FF739E
S2140168D09A42F0B56FD002296FD8394B5B5C012B19
S2140168E06BD8384DDF0005EBC30415F83330A178BB
S2140168F0012B13D10025E078401AA84202D808449B
S214016900C0B2F0BD431B6668A0EB530336F91360B3
S2140169109642D4BF1D4603F1FF30EEE760680028BB
S214016920EFD0B0F90040944204DBB0F90240944243
S214016930B8BF144683883D44FF2B19BFC8224FF0C9
S214016940280CB0F90620B0F908C0A2EB04030CBF6E
S2140169500126002693FBFCF333446E781BB29E425D
S21401696001DD002B01DA731E1BB24FF47A7C013372
S2140169709BB2071D5D1E2DB24FEAC50E00EBC50585
S214016980EA88AD689E4214FB025222EAE27202F1E4
S2140169905C02B2FBFCF204DD37F83350013395425A
S2140169A0E8D200EB0E039888904228BF1046884232
S2140169B038BF0846A4E7FF20A3E70020A1E700BFF1
S2140169C05BF00300D81800200229F0B555D82C4BEF
S2140169D0585C012851D82B4C04EBC00114F8300048
S2140169E04B6801280FD1C8788C78904294BFC4EBCD
S2140169F00001C4EB0201001BCAB28242C8BF0022DA
S214016A0033F91200F0BD002B37D08878904202D3BC
S214016A10B3F90200F6E7CC78B3F900009442F1D955
S214016A204C789988013CA1F1FF06714203F10405F7
S214016A30E4B2714103F10C07CEB2B44216D805EBAD
S214016A40C1014FF47A756A43B1F902404968521A96
S214016A5004EBD47102EB610292FBF4F29042D1DBBB
S214016A60B3F902009042CDDC10B2CBE737F831C063
S214016A704E1C9445E3D33146DEE70348C2E700BF28
S214016A805BF00300D81800200080FFFF08B504481B
S214016A90FFF70AFFBDE80840012023F0CDB900BF8B
S214016AA044F6030000487047642D00207FB502229B
S214016AB0084B0949CDE901234FF00073CDE90313D3
S214016AC0052301A94FF0FF30059323F00CFA07B018
S214016AD05DF804FB006A18000002040006289ABF4D
S214016AE0014B185C002070475FF003004FF4005222
S214016AF0034B00209A660322C3F86022704700BF4A
S214016B00009000504FF40052034B00209A66032277
S214016B10C3F86022704700BF00A0005000F01F02BB
S214016B20A0F50620A0F55060812810D80123094958
S214016B304009934051F820201A4341F82020064985
S214016B4051F8202022EA030241F8202070474FF036
S214016B50FF30704708190020F418002000F01F03CA
S214016B60A0F50620A0F55060812810B519D801219E
S214016B700D4A4009994052F820300B430B4942F820
S214016B802030D1E9004323448C682344CC6809694A
S214016B9023445B1804D1C2E90033C2E9023313610E
S214016BA010BD4FF0FF30FBE7F41800200819002055
S214016BB02DE9F04FA7B003921F4604460822CDE9FF
S214016BC00401414021FA02F34B40980702F1080202
S214016BD018BF9B00202A1C44F4D18123B4FBF3F395
S214016BE003EBC313E41A7F4B04F506241B7804F564
S214016BF05064002B39D1FEF7B5F9054600286FD150
S214016C000146402206A823F027FF2946402216A85F
S214016C1023F022FF744D754EA8461035AE4228BFAC
S214016C202E467348013E009643461022006806A988
S214016C301AF0A6F94FF0000B81460DF1180AD94556
S214016C4041D16B48009643461022006816A91AF0F7
S214016C50A0F94FF00008834616AEC34546D1654BF2
S214016C609D42D8D101225F4B1A704FF08108002651
S214016C70DFF894B1A4F50625A5F550635B095BF82A
S214016C80232004F01F01CA40D20746D45A4A52F8BC
S214016C902330CB40DB0732D58123002E08BF2646A2
S214016CA0A5F6FF44B4FBF3F303EBC313E41A04F5B0
S214016CB00624B8F1010804F55064DBD1039B03B345
S214016CC0FEB1344625E05AF8040BFFF727FF0130E2
S214016CD009D10022434B1A70424B1B78002BC4D1BA
S214016CE06FF091000FE00BF1010BA8E756F8040BCB
S214016CF0FFF734FF0130EFD008F10108ADE7039B41
S214016D0023B96FF08B0027B0BDE8F08F002E18BFB7
S214016D103446329B00201C60F5E7309B13B10023FC
S214016D20309A1360319B13B10023319A13604FF0F0
S214016D30100ADFF8BC90CDF800A000233A462146A1
S214016D40D9F80000FDF712FF002838D130993A68CB
S214016D502A4BE9B19A42C1F800A01CD02146D9F8C5
S214016D600000FEF75BF80028CBD1D7E90223DDE966
S214016D700410834208BF8A422AD08123A5F6FF4524
S214016D80B5FBF3F303EBC313ED1A05F5062490E701
S214016D909A42EAD0E2E7319B002BE6D02146D9F8A9
S214016DA0000016AAFDF728FF48B9319B309A1B68E8
S214016DB01268934294D39B1A319A1360D5E7104B0D
S214016DC09842CBD06328C9D00E4B9842CDD087E7E6
S214016DD0039B002B9DD07B68012B9AD16FF084001A
S214016DE091E700BF2F280020006D0800816D080084
S214016DF0942B0020906D0800F4180020105D175E9B
S214016E00FFDF00F0FEDF00F0081900202DE9F04F4B
S214016E1087B08246894698461646DDF840B02AB1C4
S214016E20002B53D040F26C739A4252D8BBF1010F3B
S214016E3052D8002406F110073946012005941BF0AC
S214016E40B4F8054600284AD021463A4623F004FE07
S214016E5005ABCDE9014300942B4601225046494635
S214016E60FFF7A6FE044680B110F18C0F08BF6FF045
S214016E708D043A460021284623F0EEFD28461BF0F5
S214016E8076F8204607B0BDE8F08F164BC5E902A993
S214016E902B60C5F804B02EB13246414605F110000C
S214016EA023F0E5FD059E10483B462A46314600681C
S214016EB0FDF770FF38B93046FFF730FE013008BFE6
S214016EC06FF08604D5E76FF09104D2E76FF0860481
S214016ED0D7E76FF09104D4E76FF08504D1E76FF040
S214016EE08C04CEE7105D175E942B00202DE9F0434D
S214016EF08DB08146DDE914780E4615461C469BB1D9
S214016F00B8F1000F05D16FF0860630460DB0BDE82A
S214016F10F083002FF7D0B7F1005FF4D3C3F100532D
S214016F2003F500439F42EED81022002108A823F063
S214016F3093FD002207AB029305AB019306AB3146E6
S214016F400093484608ABCDE90522FFF731FE064619
S214016F500028DAD1059BA4B1AB4215D853EA050443
S214016F60D1D1069B0B48C8F8004000943A460799D1
S214016F7000682B44FDF7FAFD002818BF6FF0910654
S214016F80C3E7AB42EDD2BEE75B1B9C4228BF1C4663
S214016F90E7E700BF942B002030B58DB00C460546C0
S214016FA01022002108A823F057FD002207AB029308
S214016FB005AB019306AB21460093284608ABCDE905
S214016FC00522FFF7F5FD044608BB099B012B21D0DE
S214016FD0079D134B29461868FDF720FFE8B9A5F56C
S214016FE00623A3F55063812B05F01F020DD801215E
S214016FF00C485B09914050F823204A4040F8232072
S2140170002846FFF7ABFD013001D16FF0860420461C
S2140170100DB030BD6FF08404F9E76FF09104F6E728
S214017020942B0020081900202DE9F04F89B007465F
S2140170300E4601F073FEC00709D4042401201BF09C
S2140170407EFC80B3013CF9D16FF0920028E010225B
S21401705000210DEB020023F0FFFC04A801F0C0FEA6
S214017060049B002BE9D0059B002BE6D0069B002B4A
S214017070E3D0079B002BE0D00025DFF8808008F1E5
S2140170800409B54219D34FF48A7401F041FE00F0A9
S2140170900E03062B2DD1C30501D501F06BFE002092
S2140170A009B0BDE8F08F01F033FE10F00E03FAD000
S2140170B0022BF8D04105DFD5C4E701F023FEA6EB8D
S2140170C0050A8400544528BF544699E80300002366
S2140170D08DE80300CDE9054307EB050BCDF810B0AD
S2140170E0029404AAD8F8003007CA1BF021FB2544F5
S2140170F0C7E724FA03F3DA07A6D5C6E78CF0030040
S2140171002DE9F0438BB01746DDE91545DDE9132679
S2140171109C46DDE91738894621B96FF086000BB029
S214017120BDE8F083002FF8D00EB9002CF5D11299E6
S21401713009B9002AF1D10DB9002BEED1B8F1000F33
S214017140EBD0244A944541D10288B2F5105F3DD177
S2140171504288B7EBD20FE0D322F04001802902D05B
S214017160B2F5807FD9D16CB3AE421CD232199542AA
S21401717019D29C42D1D831462246284623F052FCE9
S2140171802E4614F00F03C8D1CDE90197CDE9033699
S214017190CDE90543CDE907540993FFF7A7FC38B1BC
S2140171A06FF09200BBE79C42EBD96FF08900B6E71F
S2140171B007AA04A901A801F0D7FE0546FFF7A2FC1D
S2140171C00543EDD10020C8F80040A8E76FF0850020
S2140171D0A5E700BF004440042DE9F04FA9B083465F
S2140171E017469A460E46DDF8C890DDF8D88029B9CC
S2140171F06FF08603184629B0BDE8F08F002AF7D055
S214017200B9F1000FF4D0349B002BF1D0B8F1000F88
S214017210EED00024424B0CAD93E8070085E807004A
S2140172203C22214619A8189423F016FC338872884C
S21401723003F4E040B0F5804FDAD03A4E3A480BEA14
S214017240060646F01066864263D1B2F5807F60D1AD
S21401725047F2121293425CD10620344ABAF11F0F4C
S214017260D3680E940B931369126800FB03F3CDE900
S2140172700C23BDD9339B402BBAD9359B1F2B4BD939
S21401728009F1010220261292402299F800300F9748
S214017290042B18AFCDE91324CDE91572109611947D
S2140172A01794A5D1FFF722FC03460028A2D10B9B19
S2140172B015AACDE9086305AB07CA83E8070002AB48
S2140172C012AA07CA83E80700DDE910018DE803006A
S2140172D00F9B95E8070001F021FF0546FFF712FC1A
S2140172E055EA000384D13D46349A20AE2C4603CCA1
S2140172F0B44210605160254602F10802F6D1002220
S2140173001146B9540132402AFBD12022C8F8002088
S21401731070E76FF085036DE76FF089036AE700BFDA
S21401732008F203000000FFF6000002091CF2030049
S214017330F0B50E461D468BB0002853D0002951D01B
S214017340002A4FD0002B4DD0048804F44F43B3F5E8
S214017350824F03D06FF085000BB0F0BDE3B224F08E
S214017360FF04B4F5E24FB0F802C0F3D1122B01D0FE
S214017370172BEFD10CF10701B2EBD10F4FEAD10772
S21401738033D31D4A04ACBCF5807F07CA84E80700E6
S214017390E0D1122B07D1194B1A691B681344CDE9AA
S2140173A00432002306930023CDE907670993FFF70C
S2140173B09DFB0028D0D1124A02AB92E8030083E875
S2140173C003000AAB13E903008DE80300079B94E86A
S2140173D007001BF032F90446FFF794FB204307D160
S2140173E02F60B9E76FF08600B6E76FF08900B3E764
S2140173F06FF09200B0E700BF08F203001CF2030032
S21401740084F003002DE9F0438FB01D46DDE916C672
S21401741000285CD000295AD0002A58D0002B56D01C
S214017420BCF1000F53D0002E51D0038803F44F4413
S214017430B4F5824F51D1DCB223F0FF03B3F5824F8E
S21401744040884AD0122C01D0172C46D1C31DB2EB6E
S214017450D30F4FEAD3083AD34FEA4802571C674581
S21401746038D8B0F5807F38D1122C18BF4FF00009FC
S2140174704FF0000308BF1C4CCDE9081805F10101C7
S21401748014BF4C46D4F80C90CDE90B120A930D9319
S214017490FFF72CFBC0B9CDE9058902AB08AA07CADC
S2140174A083E807000EAB13E903008DE803000B9B8E
S2140174B094E807001BF0E0F80446FFF723FB20439F
S2140174C00ED104232B7037600FB0BDE8F0836FF048
S2140174D08600F9E76FF08900F6E76FF08500F3E7BD
S2140174E06FF09200F0E700BF1CF203002DE9F043B5
S2140174F089B00E4615461F46DDF8488020B96FF064
S214017500860009B0BDE8F0830029F8D0002AF6D03D
S214017510B8F1000FF3D0038803F44F42B2F5824F5F
S21401752002D06FF08500ECE7DAB2122A01D0172AF2
S214017530F7D123F0FF03B3F5E24F41D14488C8F8F1
S214017540004044B9EB00B3F5807FC8F80030E8D1BD
S214017550122A0DD108E0E31DB5EBD30FCFD1B4F558
S214017560807FDED1122A29D1354B1C681B691C4449
S2140175700023194670192C4414F801CD10F8012D7A
S2140175801143B2EB0C020CBF4FF0FF3C4FF0000C66
S21401759086420CEA030343EA0203EDD10029AED08A
S2140175A0002BACDA109B9D4246D82A463146384617
S2140175B023F05DFA119B00201D60A2E70024D7E7A7
S2140175C03378042B9BD16B1EDB005B08B3F5807F01
S2140175D0C8F80030A5D1122A06F1010318BF4FF0F2
S2140175E000094FF0400205934FF000030ABF144C08
S2140175F04C46D4F80C90CDE90623FFF777FA00281D
S2140176007FF47FAFCDF80C90D8F800300733DB0855
S214017610029308AB13E903008DE80300059B94E889
S21401762007001BF0D6F80446FFF76CFA00287FF433
S21401763068AF002CB6D062E76FF0890061E700BF43
S2140176401CF203000388B3F5105F0ED14388DB08F4
S214017650103B102B0CD8084A22FA03F313F0010F43
S21401766014BF00206FF0860070476FF085007047EA
S2140176706FF08600704700BF010101002DE9F04F51
S2140176808FB01546DDE918A91E46DDF868801C9FF7
S21401769009B300B3B8F1000F1DD0E7B1BAF1000F7E
S2140176A002D1B9F1000F16D1274B26F47E129A4269
S2140176B0B0F802B044D1FFF7C5FF0446A8BBB5EB4E
S2140176C0DB0F4FEADB0306D316F47C1FC6F3054532
S2140176D004D0102D03D96FF0860426E010251B9ADE
S2140176E095422AD8CDE9011300231022CDE905934E
S2140176F00DF12809CDE9033ACDE90823CDF81C9010
S214017700FFF7F4F9044680B907AA04A901A801F015
S2140177103FFC0646FFF7F6F9044656B958B92A461D
S2140177204946404623F0A3F93D6020460FB0BDE828
S214017730F08F6FF092040025F6E76FF08904F4E706
S2140177406FF08504F1E700BF0002C0032DE9F041A8
S214017750069F0C461646054610B309B302B9FBB997
S2140177606288B3EBD20F4FEAD20819D34C2200211C
S214017770284623F071F90D4B27F47E129A4212D156
S2140177802046FFF75FFF044638B942463146281DBA
S21401779023F06DF9C5F824802F602046BDE8F081FE
S2140177A06FF08604F9E76FF08504F6E70002C00380
S2140177B02DE9F0410E4614460546002840D0002922
S2140177C03ED092B10368214823F47E1383423AD116
S2140177D0AF6BF7B1C7F1100807F1280042452844FE
S2140177E006D2274423F043F9AF630020BDE8F081B9
S2140177F0424623F03CF91022103C3C19AA63F4D00F
S214017800284605F1280119F071FE0028EED14644FC
S214017810A863102C0CD9671E27F00F073A4631468D
S214017820284619F063FE0028E0D1E41BDDD03E4473
S2140178302246314605F1280023F019F9AC63D4E756
S2140178406FF08600D2E76FF08800CFE70002C00332
S2140178502DE9F04388461F4605468BB070B169B1E5
S21401786063B10368234923F47E1088423ED113F4A2
S2140178707C1FC3F3054604D0102E03D96FF086048F
S2140178802AE0102696422BD8FFF730F9044618BB9B
S214017890AB6B05F12802CDE901236B6A2A1DCDE900
S2140178A004231023CDE9083007AB1A46039006904F
S2140178B005F13C0901A904A8CDF81C9001F08CFB48
S2140178C00546FFF71FF904466DB928B93246494601
